:020000040000FA
:0400000007EF00F016
:0A0008007882A6ED0EF0A4EF13F0CD
:1006000000456E747261646120426C6F7175656142
:10061000646100536169646120426C6F717565614A
:100620006461004C696D697465206D6178696D6FF6
:10063000006174696E6769646F2E00456E74726143
:0F0640006E646F005361696E646F002564000083
:100650009DC0B5F09EC0B6F09FC0B7F0A0C0B8F086
:10066000A1C0B9F0A2C0BAF0A3C0BBF0A4C0BCF056
:100670000001BCBF3EEF03F041EF03F0010E42EF7B
:1006800003F0000EB36FB46BB351B411D8B44BEF99
:1006900003F04DEF03F05FEF03F0BC1FBB1FBA1F69
:1006A000B91FB81FB71FB61FB56D000EB623B7230D
:1006B000B823B923BA23BB23BC235FEF03F0F4BFF5
:1006C00064EF03F066EF03F069EF03F0F59369EF71
:1006D00003F0F4BF76EF03F0F45106E1F305D8B070
:1006E00074EF03F076EF03F07CEF03F0000EB06FD1
:1006F000010EAF6F80EF03F0F3C0AFF0F4C0B0F0C5
:10070000F1C0B1F0F2C0B2F0B351B411D8A48BEF84
:1007100003F08DEF03F096EF03F0F5A592EF03F0F1
:1007200094EF03F09BEF03F096EF03F0B107D8A02E
:10073000B2079BEF03F0000EBE6F1F0EBD6F000EE1
:10074000BD25D96E010EBE21DA6E000EDF6E28EFD8
:1007500004F0BD07D8A0BE07000EBD25D96E010E5E
:10076000BE21DA6EB5C080F0B6C081F0B7C082F0AD
:10077000B8C083F0B9C084F0BAC085F0BBC086F0C1
:10078000BCC087F00A0E886F000E896F000E8A6F5A
:10079000000E8B6F000E8C6F000E8D6F000E8E6F33
:1007A000000E8F6FB6EC0AF080C0A5F081C0A6F0F5
:1007B00082C0A7F083C0A8F084C0A9F085C0AAF0C9
:1007C00086C0ABF087C0ACF0A5C092F0A7C093F094
:1007D000E6EC12F000019251300FDF6EAF07D8A0A7
:1007E000B007B107D8A0B207B5C080F0B6C081F09D
:1007F000B7C082F0B8C083F0B9C084F0BAC085F049
:10080000BBC086F0BCC087F00A0E886F000E896FEF
:10081000000E8A6F000E8B6F000E8C6F000E8D6FB6
:10082000000E8E6F000E8F6F05EC09F080C0B5F0E2
:1008300081C0B6F082C0B7F083C0B8F084C0B9F010
:1008400085C0BAF086C0BBF087C0BCF028EF04F0CA
:100850000001BEBF34EF04F0BE5108E1BD05D8A0D1
:1008600034EF04F036EF04F06CEF04F0B551B6113C
:10087000B711B811B911BA11BB11BC11D8A443EF0B
:1008800004F045EF04F0A9EF03F0B0BF52EF04F01D
:10089000B05106E1AF05D8B050EF04F052EF04F0CC
:1008A000A9EF03F0B2BF5DEF04F0B25108E1B1056A
:1008B000D8A05DEF04F05FEF04F06CEF04F0F5B347
:1008C00064EF04F066EF04F0A9EF03F06CEF04F0BE
:1008D0006CEF04F06CEF04F0B351B411D8A473EFD3
:1008E00004F075EF04F07EEF04F0F5A57AEF04F064
:1008F0007CEF04F0A0EF04F07EEF04F0BD07D8A079
:10090000BE07B351B411D8A488EF04F08AEF04F005
:1009100090EF04F0000EAE6F2B0EAD6F96EF04F06B
:10092000000EAE6F2D0EAD6F96EF04F0000EBD25DC
:10093000D96E010EBE21DA6EADC0DFFFA0EF04F06C
:100940009BC090F09CC091F0000EBD25926F010EEF
:10095000BE21936FB1C094F0B2C095F085EC0FF05A
:1009600090C09BF091C09CF0B6EF04F012001EC046
:1009700036F01FC037F020C038F021C039F022C057
:100980003AF023C03BF024C03CF025C03DF03DBE12
:10099000CCEF04F0CFEF04F0010ED0EF04F0000E26
:1009A000346E356A34503510D8B4D9EF04F0DBEF2B
:1009B00004F0EDEF04F03D1E3C1E3B1E3A1E391EB6
:1009C000381E371E366C000E3722382239223A2262
:1009D0003B223C223D22EDEF04F00001F4BFF3EF97
:1009E00004F0F5EF04F0F8EF04F0F593F8EF04F0FD
:1009F000F4BF05EF05F0F45106E1F305D8B003EFBD
:100A000005F005EF05F00BEF05F0000E316E010E5D
:100A1000306E0FEF05F0F3C030F0F4C031F0F1C0EC
:100A200032F0F2C033F034503510D8A41AEF05F08C
:100A30001CEF05F025EF05F0F5A521EF05F023EFFC
:100A400005F02AEF05F025EF05F03206D8A03306B1
:100A50002AEF05F0000E3F6E1F0E3E6E000E3E2484
:100A6000D96E010E3F20DA6E000EDF6EB6EF05F094
:100A70003E06D8A03F06000E3E24D96E010E3F2050
:100A8000DA6E36C001F037C002F038C003F039C06A
:100A900004F03AC005F03BC006F03CC007F03DC092
:100AA00008F00A0E096E000E0A6E000E0B6E000EA4
:100AB0000C6E000E0D6E000E0E6E000E0F6E000E10
:100AC000106E7DEC0BF001C026F002C027F003C0D1
:100AD00028F004C029F005C02AF006C02BF007C09A
:100AE0002CF008C02DF026C013F028C014F02BEC19
:100AF00013F01350300FDF6E3006D8A031063206E7
:100B0000D8A0330636C001F037C002F038C003F079
:100B100039C004F03AC005F03BC006F03CC007F015
:100B20003DC008F00A0E096E000E0A6E000E0B6E34
:100B3000000E0C6E000E0D6E000E0E6E000E0F6E8F
:100B4000000E106EDEEC09F001C036F002C037F086
:100B500003C038F004C039F005C03AF006C03BF0DD
:100B600007C03CF008C03DF0B6EF05F03FBEC1EF56
:100B700005F03F5008E13E04D8A0C1EF05F0C3EFF7
:100B800005F0FAEF05F036503710381039103A10EA
:100B90003B103C103D10D8A4D0EF05F0D2EF05F08B
:100BA00038EF05F031BEDFEF05F0315006E13004DB
:100BB000D8B0DDEF05F0DFEF05F038EF05F033BE1C
:100BC000EAEF05F0335008E13204D8A0EAEF05F06F
:100BD000ECEF05F0FAEF05F00001F5B3F2EF05F0E8
:100BE000F4EF05F038EF05F0FAEF05F0FAEF05F055
:100BF000FAEF05F034503510D8A401EF06F003EFFA
:100C000006F00DEF06F00001F5A509EF06F00BEF79
:100C100006F02FEF06F00DEF06F03E06D8A03F06D7
:100C200034503510D8A417EF06F019EF06F01FEF77
:100C300006F0000E2F6E2B0E2E6E25EF06F0000E26
:100C40002F6E2D0E2E6E25EF06F0000E3E24D96E6F
:100C5000010E3F20DA6E2EC0DFFF2FEF06F01CC022
:100C600011F01DC012F0000E3E24136E010E3F2045
:100C7000146E32C015F033C016F0F2EC0FF011C054
:100C80001CF012C01DF045EF06F012004DEC13F001
:100C9000000E816E000E836E000E846E000ED76E05
:100CA000060ED66E000E0001F86F000EF76F000EF4
:100CB000FC6F000EFB6F5DEF06F082B262EF06F094
:100CC00064EF06F08EEF06F0480E0001F06F6C0E38
:100CD000E82EFED7F02FFCD700F082B272EF06F0BC
:100CE00074EF06F08EEF06F0480E0001F06F6C0E08
:100CF000E82EFED7F02FFCD700F083EF06F0E1ECF2
:100D000013F083EF06F082A288EF06F08AEF06F078
:100D10007FEF06F08EEF06F08EEF06F082B693EFCF
:100D200006F095EF06F0BFEF06F0480E0001F06FF9
:100D30006C0EE82EFED7F02FFCD700F082B6A3EFA2
:100D400006F0A5EF06F0BFEF06F0480E0001F06FC9
:100D50006C0EE82EFED7F02FFCD700F0B0EF06F0B7
:100D600082A6B5EF06F0B7EF06F0B0EF06F0B9EFE8
:100D700006F06EEC13F0BFEF06F0BFEF06F082B4A2
:100D8000C4EF06F0C6EF06F0FDEF06F0480E0001D6
:100D9000F06F6C0EE82EFED7F02FFCD700F082B477
:100DA000D4EF06F0D6EF06F0FDEF06F0480E000196
:100DB000F06F6C0EE82EFED7F02FFCD700F0E1EFBD
:100DC00006F082A4E6EF06F0E8EF06F0E1EF06F0A9
:100DD000EAEF06F06EEC13F0FF0E0001FB25FB6F4F
:100DE000FF0EFC21FC6FFBC080F0FCC081F01AEC10
:100DF00012F0FDEF06F0FDEF06F082B002EF07F013
:100E000004EF07F05DEF06F0480E0001F06F6C0E86
:100E1000E82EFED7F02FFCD700F082B012EF07F0DB
:100E200014EF07F05DEF06F0480E0001F06F6C0E56
:100E3000E82EFED7F02FFCD700F01FEF07F082A0BE
:100E400024EF07F026EF07F01FEF07F028EF07F079
:100E500009EC13F05DEF06F05DEF06F05DEF06F0D4
:100E60005DEF06F007EF00F0C1C0D9FFC2C0DAFFA6
:100E7000DECFF6FFDDCFF7FF0800F550250AD8A436
:100E800044EF07F046EF07F0FDEF07F0C1C0D9FFD0
:100E9000C2C0DAFFDE2A000EDD22000E0001F26F72
:100EA000000EF16FF1C0F5F0F2C0F6F0F369F469ED
:100EB000C1C0D9FFC2C0DAFFDECFF6FFDDCFF7FF3A
:100EC0000800F550640AD8B468EF07F06AEF07F03D
:100ED0007EEF07F0C1C0D9FFC2C0DAFFDECFF6FF58
:100EE000DDCFF7FF0800F550690AD8A47AEF07F0C4
:100EF0007CEF07F0C0EF07F07EEF07F0C1C0D9FF2D
:100F0000C2C0DAFFDE2A000EDD22C3C0D9FFC4C092
:100F1000DAFFDFCFC5F0020EDE26DFCFC6F0000E0F
:100F2000DD22C5C0D9FFC6C0DAFFDECFC7F0DDCFF6
:100F3000C8F0000EC8BFFF0EC96FCA6FCB6FCC6F71
:100F4000CD6FCE6FBFC09BF0C0C09CF0C7C09DF0FE
:100F5000C8C09EF0C9C09FF0CAC0A0F0CBC0A1F02D
:100F6000CCC0A2F0CDC0A3F0CEC0A4F028EC03F01A
:100F70009BC0BFF09CC0C0F01EEF08F01EEF08F051
:100F8000C1C0D9FFC2C0DAFFDECFF6FFDDCFF7FF69
:100F90000800F550250AD8A4D0EF07F0D2EF07F0EB
:100FA000EDEF07F0C1C0D9FFC2C0DAFFDE2A000EA4
:100FB000DD22000E0001816F250E806FBFC082F020
:100FC000C0C083F035EC0EF0000E0001C06F010EC2
:100FD000BF6F1EEF08F01EEF08F0C1C0D9FFC2C0FE
:100FE000DAFFDE2A000EDD22000E0001C06F000EC7
:100FF000BF6F1EEF08F01EEF08F0C1C0D9FFC2C0DE
:10100000DAFFDECFF6FFDDCFF7FF0800F550000175
:10101000806F816BBFC082F0C0C083F035EC0EF0F2
:10102000C1C0D9FFC2C0DAFFDE2A000EDD22000EE9
:101030000001C06F010EBF6F1EEF08F0120042C02A
:10104000D9FF43C0DAFFDECFF6FFDDCFF7FF0800A0
:10105000F550250AD8A42FEF08F031EF08F0E5EF9E
:1010600008F042C0D9FF43C0DAFFDE2A000EDD22BD
:10107000000E0001F26F000EF16FF1C0F5F0F2C04A
:10108000F6F0F369F46942C0D9FF43C0DAFFDECF5E
:10109000F6FFDDCFF7FF0800F550640AD8B453EF30
:1010A00008F055EF08F069EF08F042C0D9FF43C0DF
:1010B000DAFFDECFF6FFDDCFF7FF0800F550690A53
:1010C000D8A465EF08F067EF08F0ABEF08F069EF20
:1010D00008F042C0D9FF43C0DAFFDE2A000EDD224D
:1010E00044C0D9FF45C0DAFFDFCF46F0020EDE264E
:1010F000DFCF47F0000EDD2246C0D9FF47C0DAFF40
:10110000DECF48F0DDCF49F0000E49BEFF0E4A6E3B
:101110004B6E4C6E4D6E4E6E4F6E40C01CF041C01B
:101120001DF048C01EF049C01FF04AC020F04BC05F
:1011300021F04CC022F04DC023F04EC024F04FC02F
:1011400025F0B7EC04F01CC040F01DC041F004EFE6
:1011500009F004EF09F042C0D9FF43C0DAFFDECF47
:10116000F6FFDDCFF7FF0800F550250AD8A4BBEF46
:1011700008F0BDEF08F0D6EF08F042C0D9FF43C039
:10118000DAFFDE2A000EDD22000E026E250E016E51
:1011900040C003F041C004F016EC0FF0000E416EA9
:1011A000010E406E04EF09F004EF09F042C0D9FFD0
:1011B00043C0DAFFDE2A000EDD22000E416E000E73
:1011C000406E04EF09F004EF09F042C0D9FF43C0BC
:1011D000DAFFDECFF6FFDDCFF7FF0800F550016E36
:1011E000026A40C003F041C004F016EC0FF042C0A8
:1011F000D9FF43C0DAFFDE2A000EDD22000E416E69
:10120000010E406E04EF09F01200000E0001916F14
:101210008FBF0FEF09F00DEF09F023EF09F08F1FDB
:101220008E1F8D1F8C1F8B1F8A1F891F886D000EBC
:1012300089238A238B238C238D238E238F23010ED6
:10124000916F23EF09F087BF2AEF09F028EF09F02B
:101250003EEF09F0871F861F851F841F831F821F93
:10126000811F806D000E81238223832384238523A5
:1012700086238723010E911B3EEF09F020EE92F0AA
:10128000070EDE6AE806FDE2885189118A118B118A
:101290008C118D118E118F11D8B451EF09F053EFCD
:1012A00009F0B1EF09F0010E906F63EF09F0D890EB
:1012B000883789378A378B378C378D378E378F371A
:1012C000902B63EF09F08FAF68EF09F06AEF09F038
:1012D00057EF09F06EEF09F06EEF09F0D8909237F2
:1012E000933794379537963797379837993788518A
:1012F000805D895181598A5182598B5183598C5112
:1013000084598D5185598E5186598F518759D8A04E
:101310008CEF09F08EEF09F0A1EF09F08851805FA2
:101320008951815B8A51825B8B51835B8C51845BD9
:101330008D51855B8E51865B8F51875B9281A1EFCA
:1013400009F0D8908F338E338D338C338B338A33BF
:1013500089338833902F6EEF09F0B1EF09F0B1EFC8
:1013600009F09151D8B4B7EF09F0B9EF09F0CBEF1C
:1013700009F0991F981F971F961F951F941F931F81
:10138000926D000E932394239523962397239823FD
:101390009923CBEF09F092C080F093C081F094C004
:1013A00082F095C083F096C084F097C085F098C015
:1013B00086F099C087F0DDEF09F01200000E126E82
:1013C00010BEE7EF09F0E5EF09F0FBEF09F0101EA2
:1013D0000F1E0E1E0D1E0C1E0B1E0A1E096C000E8B
:1013E0000A220B220C220D220E220F221022010EA5
:1013F000126EFBEF09F008BE02EF0AF000EF0AF0F0
:1014000016EF0AF0081E071E061E051E041E031E08
:10141000021E016C000E0222032204220522062273
:1014200007220822010E121A16EF0AF020EE13F01E
:10143000070EDE6AE806FDE209500A100B100C10D8
:101440000D100E100F101010D8B429EF0AF02BEF6A
:101450000AF089EF0AF0010E116E3BEF0AF0D89006
:1014600009360A360B360C360D360E360F36103668
:10147000112A3BEF0AF010AE40EF0AF042EF0AF0FB
:101480002FEF0AF046EF0AF046EF0AF0D890133635
:101490001436153616361736183619361A360950D8
:1014A000015C0A5002580B5003580C5004580D5060
:1014B00005580E5006580F50075810500858D8A01D
:1014C00064EF0AF066EF0AF079EF0AF00950015E66
:1014D0000A50025A0B50035A0C50045A0D50055A28
:1014E0000E50065A0F50075A1050085A138079EFC1
:1014F0000AF0D89010320F320E320D320C320B320D
:101500000A320932112E46EF0AF089EF0AF089EF0C
:101510000AF01250D8B48FEF0AF091EF0AF0A3EF5F
:101520000AF01A1E191E181E171E161E151E141E4E
:10153000136C000E142215221622172218221922CB
:101540001A22A3EF0AF013C001F014C002F015C074
:1015500003F016C004F017C005F018C006F019C05B
:1015600007F01AC008F0B5EF0AF01200000E0001F3
:10157000916F87BFC0EF0AF0BEEF0AF0D4EF0AF018
:10158000871F861F851F841F831F821F811F806DF9
:10159000000E8123822383238423852386238723AC
:1015A000010E916FD4EF0AF08FBFDBEF0AF0D9EF95
:1015B0000AF0EDEF0AF08F1F8E1F8D1F8C1F8B1FFF
:1015C0008A1F891F886D000E89238A238B238C2311
:1015D0008D238E238F23EDEF0AF0885189118A1114
:1015E0008B118C118D118E118F11D8B4FAEF0AF076
:1015F000FCEF0AF050EF0BF0010E906F0CEF0BF0C8
:10160000D890883789378A378B378C378D378E3724
:101610008F37902B0CEF0BF08FAF11EF0BF013EF18
:101620000BF000EF0BF017EF0BF017EF0BF08851FA
:10163000805D895181598A5182598B5183598C51CE
:1016400084598D5185598E5186598F518759D8A00B
:101650002CEF0BF02EEF0BF040EF0BF08851805F7A
:101660008951815B8A51825B8B51835B8C51845B96
:101670008D51855B8E51865B8F51875B40EF0BF000
:10168000D8908F338E338D338C338B338A338933B9
:101690008833902F17EF0BF050EF0BF050EF0BF05B
:1016A0009151D8B456EF0BF058EF0BF06AEF0BF0F6
:1016B000871F861F851F841F831F821F811F806DC8
:1016C000000E81238223832384238523862387237B
:1016D0006AEF0BF080C080F081C081F082C082F0A0
:1016E00083C083F084C084F085C085F086C086F016
:1016F00087C087F07CEF0BF01200000E126E08BE60
:1017000086EF0BF084EF0BF09AEF0BF0081E071E2C
:10171000061E051E041E031E021E016C000E022280
:10172000032204220522062207220822010E126E3D
:101730009AEF0BF010BEA1EF0BF09FEF0BF0B3EFA1
:101740000BF0101E0F1E0E1E0D1E0C1E0B1E0A1E71
:10175000096C000E0A220B220C220D220E220F22EF
:101760001022B3EF0BF009500A100B100C100D10E3
:101770000E100F101010D8B4C0EF0BF0C2EF0BF02A
:1017800016EF0CF0010E116ED2EF0BF0D890093667
:101790000A360B360C360D360E360F361036112A39
:1017A000D2EF0BF010AED7EF0BF0D9EF0BF0C6EF86
:1017B0000BF0DDEF0BF0DDEF0BF00950015C0A5090
:1017C00002580B5003580C5004580D5005580E5039
:1017D00006580F50075810500858D8A0F2EF0BF0D9
:1017E000F4EF0BF006EF0CF00950015E0A50025ABC
:1017F0000B50035A0C50045A0D50055A0E50065AFD
:101800000F50075A1050085A06EF0CF0D8901032BB
:101810000F320E320D320C320B320A320932112ED7
:10182000DDEF0BF016EF0CF016EF0CF01250D8B401
:101830001CEF0CF01EEF0CF030EF0CF0081E071E32
:10184000061E051E041E031E021E016C000E02224F
:1018500003220422052206220722082230EF0CF080
:1018600001C001F002C002F003C003F004C004F0A4
:1018700005C005F006C006F007C007F008C008F074
:1018800042EF0CF01200030E68186910D8A44BEF59
:101890000CF04DEF0CF085EF0CF0070E6C6E7D0E2A
:1018A000E82EFED76C2EFCD700F00DEC14F0030EE2
:1018B00037EC14F0010E026E060E036EC8EC10F049
:1018C0001A0E6D6E5E0E6C6E6E0EE82EFED76C2ECE
:1018D000FCD76D2EFAD700D0280E37EC14F0FD0E91
:1018E000586E000E596E4B0E5A6E060E5B6EF7C0A8
:1018F0005CF0F8C05DF0C2EC11F0FD0E026E000E5F
:10190000036EC8EC10F085EF0CF0040E6818691037
:10191000D8A48DEF0CF08FEF0CF0CBEF0CF0070E8E
:101920006C6E7D0EE82EFED76C2EFCD700F00DEC11
:1019300014F0030E37EC14F0130E026E060E036E55
:10194000C8EC10F01A0E6D6E5E0E6C6E6E0EE82E08
:10195000FED76C2EFCD76D2EFAD700D0280E37ECB0
:1019600014F06AC0F7F06BC0F8F0FD0E586E000E70
:10197000596E4B0E5A6E060E5B6EF7C05CF0F8C0E7
:101980005DF0C2EC11F0FD0E026E000E036EC8ECAD
:1019900010F0CBEF0CF068046910D8A4D2EF0CF073
:1019A000D4EF0CF0FEEF0CF0070E6C6E7D0EE82EFF
:1019B000FED76C2EFCD700F00DEC14F0030E37ECC4
:1019C00014F0230E026E060E036EC8EC10F0280E03
:1019D00037EC14F0310E026E060E036EC8EC10F0F8
:1019E0001A0E6D6E5E0E6C6E6E0EE82EFED76C2EAD
:1019F000FCD76D2EFAD700D0FEEF0CF012005DEC94
:101A000010F00001F751E75DE851800AE96FF851E5
:101A1000800AE959D8B00FEF0DF011EF0DF04FEF3C
:101A20000DF0070E0001E96F7D0EE82EFED7E92FBD
:101A3000FCD7FFEC13F0030E2EEC14F03B0E00016C
:101A4000816F060E826F93EC10F01A0E0001EA6FA0
:101A50005E0EE96F6E0EE82EFED7E92FFCD7EA2F57
:101A6000FAD700F0FFEC13F0030E2EEC14F0FD0E8D
:101A70000001D76F000ED86F4B0ED96F060EDA6FCC
:101A8000F7C0DBF0F8C0DCF093EC11F0FD0E0001C4
:101A9000816F000E826F93EC10F04FEF0DF000019C
:101AA000E751F75DF851800AE96FE851800AE9597A
:101AB000D8B05DEF0DF05FEF0DF09DEF0DF0070E6C
:101AC0000001E96F7D0EE82EFED7E92FFCD7FFEC71
:101AD00013F0030E2EEC14F0440E0001816F060E7D
:101AE000826F93EC10F01A0E0001EA6F5E0EE96F40
:101AF0006E0EE82EFED7E92FFCD7EA2FFAD700F0BA
:101B0000FFEC13F0030E2EEC14F0FD0E0001D76F66
:101B1000000ED86F4B0ED96F060EDA6FF7C0DBF0F0
:101B2000F8C0DCF093EC11F0FD0E0001816F000EA7
:101B3000826F93EC10F09DEF0DF012002FEC11F07E
:101B40000001F751685C6950800A6A6EF851800A9A
:101B50006A58D8B0AEEF0DF0B0EF0DF0EAEF0DF02F
:101B6000070E6A6E7D0EE82EFED76A2EFCD700F0B7
:101B70000DEC14F0030E37EC14F03B0E026E060E63
:101B8000036EC8EC10F01A0E6B6E5E0E6A6E6E0E6F
:101B9000E82EFED76A2EFCD76B2EFAD700D00DECBC
:101BA00014F0030E37EC14F0FD0E586E000E596E53
:101BB0004B0E5A6E060E5B6EF7C05CF0F8C05DF01F
:101BC000C2EC11F0FD0E026E000E036EC8EC10F0B8
:101BD000EAEF0DF068500001F75DF851800A6A6E77
:101BE0006950800A6A58D8B0F8EF0DF0FAEF0DF09E
:101BF00034EF0EF0070E6A6E7D0EE82EFED76A2EC9
:101C0000FCD700F00DEC14F0030E37EC14F0440E8A
:101C1000026E060E036EC8EC10F01A0E6B6E5E0EAE
:101C20006A6E6E0EE82EFED76A2EFCD76B2EFAD7A0
:101C300000D00DEC14F0030E37EC14F0FD0E586ECE
:101C4000000E596E4B0E5A6E060E5B6EF7C05CF0BE
:101C5000F8C05DF0C2EC11F0FD0E026E000E036ED6
:101C6000C8EC10F034EF0EF0120000018251831125
:101C7000D8B43DEF0EF03FEF0EF04AEF0EF0825178
:101C80008311D8A446EF0EF048EF0EF04FEF0EF0A0
:101C90004AEF0EF080513EEC14F0A5EF0EF000017B
:101CA00020EE04F08251D9268351DA22DE50DE1074
:101CB000D8B45DEF0EF05FEF0EF07CEF0EF020EE8B
:101CC00004F08251D9268351DA2210EE02F08251BB
:101CD000E1268351E222DE50E65CE650800A886FFE
:101CE000DE50800A8859D8B078EF0EF07AEF0EF007
:101CF000A5EF0EF07CEF0EF020EE02F08251D92617
:101D00008351DA22DECF84F0DDCF85F082C0D9FFA7
:101D100083C0DAFFDECF86F0DDCF87F084518625E1
:101D2000D96E85518721DA6E80C0DFFF20EE02F088
:101D30008251D9268351DA22DE2A000EDD22A5EF58
:101D40000EF0A5EF0EF0A5EF0EF012000600E1CFA9
:101D50006EF0E2CF6FF0D9CF70F0DACF71F0F6CF3E
:101D600072F0F7CF73F0F8CF74F0F5CF75F09EAA4C
:101D7000BCEF0EF0BEEF0EF004EF0FF09E9A030ED4
:101D8000AE18D8A4C6EF0EF0C8EF0EF0D6EF0EF0E6
:101D900089EC13F0000E696E030E686EFBC06AF0EA
:101DA000FCC06BF043EC0CF004EF0FF0040EAE1827
:101DB000D8A4DDEF0EF0DFEF0EF0EDEF0EF0F0EC5B
:101DC00013F0000E696E040E686EFBC06AF0FCC072
:101DD0006BF043EC0CF004EF0FF0640E0001FB1904
:101DE000FC11D8A4F6EF0EF0F8EF0EF004EF0FF0B0
:101DF000000EFA6F010EF96F04EF0FF004EF0FF011
:101E000004EF0FF004EF0FF075C0F5FF74C0F8FF9A
:101E100073C0F7FF72C0F6FF71C0DAFF70C0D9FF60
:101E20006FC0E2FF6EC0E1FF789211000350041012
:101E3000D8B41DEF0FF01FEF0FF02AEF0FF0035093
:101E40000410D8A426EF0FF028EF0FF02FEF0FF0BB
:101E50002AEF0FF001503FEC14F084EF0FF020EE6A
:101E600004F00350D9260450DA22DE50DE10D8B434
:101E70003CEF0FF03EEF0FF05BEF0FF020EE04F0C1
:101E80000350D9260450DA2210EE02F00350E12666
:101E90000450E222DE50E65CE650800A096EDE5015
:101EA000800A0958D8B057EF0FF059EF0FF084EFC0
:101EB0000FF05BEF0FF020EE02F00350D926045034
:101EC000DA22DECF05F0DDCF06F003C0D9FF04C073
:101ED000DAFFDECF07F0DDCF08F005500724D96E1A
:101EE00006500820DA6E01C0DFFF20EE02F003503A
:101EF000D9260450DA22DE2A000EDD2284EF0FF00C
:101F000084EF0FF084EF0FF012000001F5A18BEFCA
:101F10000FF08DEF0FF099EF0FF092C089F093C0A2
:101F20008AF090C08BF091C08CF098EC12F099EF91
:101F30000FF0000195BF9FEF0FF0A1EF0FF0A7EF9B
:101F40000FF094C099F095C09AF0ABEF0FF0000E2F
:101F50009A6F000E996F000E986F000E976FC0EF8A
:101F60000FF0000E816F200E806F90C082F091C044
:101F700083F035EC0EF00001974B982BC0EF0FF07B
:101F80009951975D9851800A966F9A51800A965997
:101F9000D8A0CDEF0FF0CFEF0FF0B1EF0FF0F5B10C
:101FA000D4EF0FF0D6EF0FF0E2EF0FF092C089F010
:101FB00093C08AF090C08BF091C08CF098EC12F036
:101FC000E2EF0FF092C080F093C081F0EFEC11F0DF
:101FD000000199518025906F9A518121916FF1EF05
:101FE0000FF012000001F5A1F8EF0FF0FAEF0FF07B
:101FF00006EF10F013C00AF014C00BF011C00CF083
:1020000012C00DF0C0EC12F006EF10F016BE0BEF90
:1020100010F00DEF10F013EF10F015C01AF016C00D
:102020001BF017EF10F0000E1B6E000E1A6E000E64
:10203000196E000E186E2BEF10F0000E026E200EBF
:10204000016E11C003F012C004F016EC0FF0184A34
:10205000192A2BEF10F01A50185C1950800A176ECD
:102060001B50800A1758D8A038EF10F03AEF10F044
:102070001DEF10F00001F5B140EF10F042EF10F04D
:102080004EEF10F013C00AF014C00BF011C00CF0AA
:1020900012C00DF0C0EC12F04EEF10F013C001F0C2
:1020A00014C002F06FEC12F01A500124116E1B5094
:1020B0000220126E5CEF10F01200030E0001836F1D
:1020C0008D908D92140E0001826F790EE82EFED74E
:1020D000822FFCD700D083C083FF8D828D92070EA4
:1020E0000001826F7D0EE82EFED7822FFCD78D82F5
:1020F0008D92420EE82EFED700D08D828D92420E38
:10210000E82EFED700D0020E836E8D828D92380E9F
:1021100019EC14F0060E19EC14F00C0E19EC14F076
:10212000FFEC13F012008D80ADEF10F081C0F6FFD0
:1021300082C0F7FFF86A050EF76403D00800F55077
:1021400005D0F6CFE1FFF7CFE2FFE75019EC14F02E
:102150000001814B822BADEF10F081C0F6FF82C0F1
:10216000F7FFF86A050EF76403D00800F55005D0B4
:10217000F6CFE1FFF7CFE2FFE7500009D8A4C3EFA5
:1021800010F0C5EF10F096EF10F0C7EF10F012004E
:102190008D80E1EF10F002C0F6FF03C0F7FFF86A90
:1021A000050EF76403D00800F55005D0F6CFE1FF27
:1021B000F7CFE2FFE75024EC14F0024A032AE1EFE4
:1021C00010F002C0F6FF03C0F7FFF86A050EF764CF
:1021D00003D00800F55005D0F6CFE1FFF7CFE2FFBE
:1021E000E7500009D8A4F7EF10F0F9EF10F0CBEFAB
:1021F00010F0FBEF10F01200D1C0D5F0D2C0D6F035
:10220000000E776E000E766E1CEF11F0CFC0BFF09F
:10221000D0C0C0F0D50E0001C16F000EC26FD3C098
:10222000C3F0D4C0C4F034EC07F00001BF517626EF
:10223000C05177221CEF11F0D5C0F6FFD6C0F7FFD2
:102240000800F5500009D8A428EF11F02AEF11F08A
:1022500006EF11F076C0CFF077C0D0F01200030E79
:10226000046E8D908D92140E036E7A0EE82EFED7BA
:10227000032EFCD704C083FF8D828D92070E036E60
:102280007D0EE82EFED7032EFCD700F08D828D92B6
:10229000420EE82EFED700D08D828D92420EE82E9F
:1022A000FED700D0020E836E8D828D92380E24EC04
:1022B00014F0060E24EC14F00C0E24EC14F00DECCB
:1022C00014F0120052C056F053C057F0000E776E53
:1022D000000E766E80EF11F050C040F051C041F01A
:1022E000560E426E000E436E54C044F055C045F089
:1022F0001FEC08F0405076264150772280EF11F015
:1023000056C0F6FF57C0F7FF0800F5500009D8A4E3
:102310008CEF11F08EEF11F06CEF11F076C050F0F1
:1023200077C051F01200DB0E0001DF6F000EE06F8E
:10233000D7C0E1F0D8C0E2F0000EE46F000EE36F0A
:10234000000EE66F000EE56FE10ECF6F000ED06F4E
:10235000D9C0D1F0DAC0D2F0DF0ED36F000ED46F47
:10236000FCEC10F0CFC0DDF0D0C0DEF00001E35196
:10237000D725D96EE451D821DA6E000EDF6EC1EF99
:1023800011F012005C0E606E000E616E58C062F0BB
:1023900059C063F0000E656E000E646E000E676E2D
:1023A000000E666E620E506E000E516E5AC052F0F4
:1023B0005BC053F0600E546E000E556E62EC11F06F
:1023C00050C05EF051C05FF064505824D96E655023
:1023D0005920DA6E000EDF6EEEEF11F0120080C0B1
:1023E00084F081C085F0FAEF11F00001804B812B61
:1023F000FAEF11F080C0D9FF81C0DAFFDF50D8A416
:1024000004EF12F006EF12F0F5EF11F008EF12F002
:1024100084C082F085C083F00001821F831F824B3D
:10242000832B80518225806F81518321816F19EF29
:1024300012F01200000180518111D8A422EF12F095
:1024400024EF12F028EF12F0819E819C819A8190F6
:10245000818E818E818C818E818C818A30EF12F009
:1024600081BF3EEF12F0815107E1650E805DD8B06B
:102470003CEF12F03EEF12F044EF12F0818E818CAF
:10248000818A818044EF12F0120001500210D8A41A
:102490004CEF12F04EEF12F052EF12F0819E819C41
:1024A000819A8190818E818E818C818E818C818AAE
:1024B0005AEF12F002BE68EF12F0025007E1650E0B
:1024C000015CD8B066EF12F068EF12F06EEF12F018
:1024D000818E818C818A81806EEF12F0120001C0A2
:1024E00005F002C006F079EF12F0014A022A79EFF6
:1024F00012F001C0D9FF02C0DAFFDF50D8A483EF89
:1025000012F085EF12F075EF12F087EF12F005C0B0
:1025100003F006C004F0031E041E034A042A0150FF
:102520000324016E02500420026E97EF12F0120095
:10253000000E00018F6F000E8E6FADEF12F08DC098
:1025400080F0816B8BC082F08CC083F035EC0EF094
:1025500000018E4B8F2BADEF12F08E518925D96E75
:102560008F518A21DA6EDF508D6F8D51D8A4BBEF69
:1025700012F0BDEF12F09FEF12F0BFEF12F0120059
:10258000000E106E000E0F6ED3EF12F00EC001F0B1
:10259000026A0CC003F00DC004F016EC0FF00F4AF5
:1025A000102AD3EF12F00F500A24D96E10500B20CE
:1025B000DA6EDF500E6E0E50D8A4E1EF12F0E3EFAA
:1025C00012F0C6EF12F0E5EF12F01200000193BF17
:1025D000F4EF12F0935106E19205D8B0F2EF12F049
:1025E000F4EF12F002EF13F092C094F093C095F064
:1025F000941F951F944B952B94C092F095C093F027
:1026000008EF13F092C092F093C093F008EF13F02C
:102610001200070E0001836F7D0EE82EFED7832F78
:10262000FCD7FFEC13F0030E2EEC14F0440E000167
:10263000816F060E826F93EC10F01A0E0001846F0A
:102640005E0E836F6E0EE82EFED7832FFCD7842F8D
:10265000FAD700F0120014BE38EF13F0145006E160
:102660001304D8B036EF13F038EF13F046EF13F041
:1026700013C015F014C016F0151E161E154A162AA2
:1026800015C013F016C014F04CEF13F013C013F084
:1026900014C014F04CEF13F01200DF0E926E000E17
:1026A000936E9468000E956E0C0E966E630ED36E4C
:1026B000D08E9D8A9F8AC00EF26EC30ED56E010E1B
:1026C000C26E0E0EC16E940EC06E240EAC6E900ED5
:1026D000AB6E000EB86E190EAF6E12000001F90558
:1026E000FA11D8A476EF13F078EF13F088EF13F017
:1026F000640EFB19FC11D8B480EF13F082EF13F0D5
:1027000088EF13F0000EFA6F000EF96F88EF13F0E8
:1027100012000001F905FA11D8A491EF13F093EF1C
:1027200013F0A3EF13F0640EFB19FC11D8B49BEF68
:1027300013F09DEF13F0A3EF13F0000EFA6F000EED
:10274000F96FA3EF13F0120001EE00F0200EEE6A15
:10275000E806FDE100EEF1F00F0EEE6AE806FDE19D
:10276000776A766A78907892000EF86E000146EFEC
:1027700006F0010E0001FB25FB6F000EFC21FC6F33
:10278000FBC0E7F0FCC0E8F0FFEC0CF0FBC080F011
:10279000FCC081F01AEC12F01200010E0001FB25C2
:1027A000FB6F000EFC21FC6FFBC068F0FCC069F001
:1027B0009EEC0DF0FBC001F0FCC002F045EC12F005
:1027C00012000001F905FA11D8B4E9EF13F0EBEFAC
:1027D00013F0EFEF13F0B9EC13F0EFEF13F012007A
:1027E0000001F905FA11D8B4F8EF13F0FAEF13F07D
:1027F000FEEF13F0CDEC13F0FEEF13F012008D900E
:10280000010E19EC14F0030E0001816F970EE82EF3
:10281000FED7812FFCD700D012008D90010E24EC42
:1028200014F0030E026E980EE82EFED7022EFCD78F
:1028300012000001806FC80E00D0E82EFDD780C0C6
:1028400083FF8D828D921200016EC80E00D0E82E9B
:10285000FDD701C083FF8D828D9212000001816F30
:102860008D9000018151800F19EC14F01200026E5E
:102870008D900250800F24EC14F012001200120010
:020000040020DA
:08000000FFFFFFFFFFFFFFFF00
:020000040030CA
:0E000000FF081F1EFF8181FF0FC00FE00F40A1
:00000001FF
